{
  "contractName": "RecipeBook",
  "abi": [
    {
      "inputs": [],
      "payable": false,
      "stateMutability": "nonpayable",
      "type": "constructor"
    },
    {
      "constant": true,
      "inputs": [],
      "name": "recipeCount",
      "outputs": [
        {
          "internalType": "uint256",
          "name": "",
          "type": "uint256"
        }
      ],
      "payable": false,
      "stateMutability": "view",
      "type": "function"
    },
    {
      "constant": true,
      "inputs": [
        {
          "internalType": "uint256",
          "name": "",
          "type": "uint256"
        }
      ],
      "name": "recipes",
      "outputs": [
        {
          "internalType": "uint256",
          "name": "id",
          "type": "uint256"
        },
        {
          "internalType": "string",
          "name": "name",
          "type": "string"
        },
        {
          "internalType": "string",
          "name": "ingredients",
          "type": "string"
        },
        {
          "internalType": "string",
          "name": "instructions",
          "type": "string"
        }
      ],
      "payable": false,
      "stateMutability": "view",
      "type": "function"
    },
    {
      "constant": false,
      "inputs": [
        {
          "internalType": "string",
          "name": "_name",
          "type": "string"
        },
        {
          "internalType": "string",
          "name": "_ingredients",
          "type": "string"
        },
        {
          "internalType": "string",
          "name": "_instructions",
          "type": "string"
        }
      ],
      "name": "createRecipe",
      "outputs": [],
      "payable": false,
      "stateMutability": "nonpayable",
      "type": "function"
    }
  ],
  "bytecode": "0x60806040526000805534801561001457600080fd5b506100b56040518060400160405280600d81526020016c53616d706c652052656369706560981b8152506040518060400160405280601c81526020017f4d616769632c2046616974682c20486f7065732c2050726179657273000000008152506040518060400160405280601681526020017f4d616b6520697420776f726b2e20536f6d65686f772e000000000000000000008152506100ba60201b60201c565b6101e9565b60008054600190810180835560408051608081018252828152602080820189815282840189905260608301889052938652848152919094208451815591518051929361010e9390850192919091019061014e565b506040820151805161012a91600284019160209091019061014e565b506060820151805161014691600384019160209091019061014e565b505050505050565b828054600181600116156101000203166002900490600052602060002090601f016020900481019282601f1061018f57805160ff19168380011785556101bc565b828001600101855582156101bc579182015b828111156101bc5782518255916020019190600101906101a1565b506101c89291506101cc565b5090565b6101e691905b808211156101c857600081556001016101d2565b90565b6106b0806101f86000396000f3fe608060405234801561001057600080fd5b50600436106100415760003560e01c80630bfd744514610046578063443c227c146101fc57806369cfdf7414610364575b600080fd5b6101fa6004803603606081101561005c57600080fd5b81019060208101813564010000000081111561007757600080fd5b82018360208201111561008957600080fd5b803590602001918460018302840111640100000000831117156100ab57600080fd5b91908080601f01602080910402602001604051908101604052809392919081815260200183838082843760009201919091525092959493602081019350359150506401000000008111156100fe57600080fd5b82018360208201111561011057600080fd5b8035906020019184600183028401116401000000008311171561013257600080fd5b91908080601f016020809104026020016040519081016040528093929190818152602001838380828437600092019190915250929594936020810193503591505064010000000081111561018557600080fd5b82018360208201111561019757600080fd5b803590602001918460018302840111640100000000831117156101b957600080fd5b91908080601f01602080910402602001604051908101604052809392919081815260200183838082843760009201919091525092955061037e945050505050565b005b6102196004803603602081101561021257600080fd5b5035610412565b60405180858152602001806020018060200180602001848103845287818151815260200191508051906020019080838360005b8381101561026457818101518382015260200161024c565b50505050905090810190601f1680156102915780820380516001836020036101000a031916815260200191505b50848103835286518152865160209182019188019080838360005b838110156102c45781810151838201526020016102ac565b50505050905090810190601f1680156102f15780820380516001836020036101000a031916815260200191505b50848103825285518152855160209182019187019080838360005b8381101561032457818101518382015260200161030c565b50505050905090810190601f1680156103515780820380516001836020036101000a031916815260200191505b5097505050505050505060405180910390f35b61036c6105da565b60408051918252519081900360200190f35b6000805460019081018083556040805160808101825282815260208082018981528284018990526060830188905293865284815291909420845181559151805192936103d2939085019291909101906105e0565b50604082015180516103ee9160028401916020909101906105e0565b506060820151805161040a9160038401916020909101906105e0565b505050505050565b600160208181526000928352604092839020805481840180548651600296821615610100026000190190911695909504601f810185900485028601850190965285855290949193929091908301828280156104ae5780601f10610483576101008083540402835291602001916104ae565b820191906000526020600020905b81548152906001019060200180831161049157829003601f168201915b50505060028085018054604080516020601f60001961010060018716150201909416959095049283018590048502810185019091528181529596959450909250908301828280156105405780601f1061051557610100808354040283529160200191610540565b820191906000526020600020905b81548152906001019060200180831161052357829003601f168201915b5050505060038301805460408051602060026001851615610100026000190190941693909304601f81018490048402820184019092528181529495949350908301828280156105d05780601f106105a5576101008083540402835291602001916105d0565b820191906000526020600020905b8154815290600101906020018083116105b357829003601f168201915b5050505050905084565b60005481565b828054600181600116156101000203166002900490600052602060002090601f016020900481019282601f1061062157805160ff191683800117855561064e565b8280016001018555821561064e579182015b8281111561064e578251825591602001919060010190610633565b5061065a92915061065e565b5090565b61067891905b8082111561065a5760008155600101610664565b9056fea265627a7a72315820d88c5695c4fb4ac1dc7193a2a19c65b3ce81ef06a0f7b0ccd3eddcf7b371ca3164736f6c63430005100032",
  "source": "pragma solidity ^0.5.16;\r\n\r\ncontract RecipeBook {\r\n    uint public recipeCount = 0;\r\n\r\n    struct Recipe {\r\n        uint id;\r\n        string name;\r\n        string ingredients;\r\n        string instructions;\r\n    }\r\n\r\n    mapping(uint => Recipe) public recipes;\r\n\r\n    constructor() public {\r\n        createRecipe(\"Sample Recipe\", \"Magic, Faith, Hopes, Prayers\", \"Make it work. Somehow.\");\r\n    }\r\n\r\n    function createRecipe(string memory _name, string memory _ingredients, string memory _instructions) public {\r\n        recipeCount ++;\r\n        recipes[recipeCount] = Recipe(recipeCount, _name, _ingredients, _instructions);\r\n    }\r\n\r\n\r\n}",
  "sourcePath": "C:\\Users\\dalle\\Projects\\hackathons\\mlh_web3_hackathon\\eth_global_kitchen\\contracts\\RecipeBook.sol",
  "compiler": {
    "name": "solc",
    "version": "0.5.16+commit.9c3226ce.Emscripten.clang"
  },
  "schemaVersion": "3.4.16",
  "updatedAt": "2024-03-31T03:49:29.289Z",
  "networkType": "ethereum",
  "devdoc": {
    "methods": {}
  },
  "userdoc": {
    "methods": {}
  }
}