{
  "contractName": "RecipeBook",
  "abi": [
    {
      "constant": true,
      "inputs": [],
      "name": "recipeCount",
      "outputs": [
        {
          "internalType": "uint256",
          "name": "",
          "type": "uint256"
        }
      ],
      "payable": false,
      "stateMutability": "view",
      "type": "function"
    }
  ],
  "bytecode": "0x608060405260008055348015601357600080fd5b506080806100226000396000f3fe6080604052348015600f57600080fd5b506004361060285760003560e01c806369cfdf7414602d575b600080fd5b60336045565b60408051918252519081900360200190f35b6000548156fea265627a7a723158202936b68cc0b7e434b800c560e71e9307ea8bf79a03e065a8424c6af21cf118a464736f6c63430005100032",
  "source": "pragma solidity ^0.5.16;\r\n\r\ncontract RecipeBook {\r\n    uint public recipeCount = 0;\r\n\r\n}",
  "sourcePath": "C:\\Users\\dalle\\Projects\\hackathons\\mlh_web3_hackathon\\eth_global_kitchen\\contracts\\RecipeBook.sol",
  "compiler": {
    "name": "solc",
    "version": "0.5.16+commit.9c3226ce.Emscripten.clang"
  },
  "schemaVersion": "3.4.16",
  "updatedAt": "2024-03-31T03:33:03.774Z",
  "networkType": "ethereum",
  "devdoc": {
    "methods": {}
  },
  "userdoc": {
    "methods": {}
  }
}